{
  "_format": "hh-sol-artifact-1",
  "contractName": "BlockBoard",
  "sourceName": "contracts/BlockBoard.sol",
  "abi": [
    {
      "inputs": [],
      "stateMutability": "nonpayable",
      "type": "constructor"
    },
    {
      "inputs": [],
      "name": "BOUNTY_PERCENTAGE",
      "outputs": [
        {
          "internalType": "uint256",
          "name": "",
          "type": "uint256"
        }
      ],
      "stateMutability": "view",
      "type": "function"
    },
    {
      "inputs": [
        {
          "internalType": "uint256",
          "name": "",
          "type": "uint256"
        }
      ],
      "name": "billboard_owners_list",
      "outputs": [
        {
          "internalType": "address",
          "name": "",
          "type": "address"
        }
      ],
      "stateMutability": "view",
      "type": "function"
    },
    {
      "inputs": [
        {
          "internalType": "address",
          "name": "",
          "type": "address"
        }
      ],
      "name": "billboards_map",
      "outputs": [
        {
          "internalType": "uint256",
          "name": "earnings",
          "type": "uint256"
        },
        {
          "internalType": "address",
          "name": "owner",
          "type": "address"
        },
        {
          "components": [
            {
              "internalType": "uint256",
              "name": "lat",
              "type": "uint256"
            },
            {
              "internalType": "uint256",
              "name": "long",
              "type": "uint256"
            }
          ],
          "internalType": "struct BlockBoard.GeoPoint",
          "name": "location",
          "type": "tuple"
        },
        {
          "internalType": "string",
          "name": "ad_url",
          "type": "string"
        },
        {
          "internalType": "address",
          "name": "renter",
          "type": "address"
        },
        {
          "internalType": "uint256",
          "name": "cost_per_block",
          "type": "uint256"
        },
        {
          "internalType": "uint256",
          "name": "block_of_rent",
          "type": "uint256"
        }
      ],
      "stateMutability": "view",
      "type": "function"
    },
    {
      "inputs": [
        {
          "internalType": "address",
          "name": "billboard_addr",
          "type": "address"
        }
      ],
      "name": "getAd",
      "outputs": [
        {
          "internalType": "string",
          "name": "ad_url",
          "type": "string"
        }
      ],
      "stateMutability": "pure",
      "type": "function"
    },
    {
      "inputs": [
        {
          "internalType": "address",
          "name": "billboard_addr",
          "type": "address"
        }
      ],
      "name": "getRentForBillboard",
      "outputs": [
        {
          "internalType": "uint256",
          "name": "accumulated",
          "type": "uint256"
        }
      ],
      "stateMutability": "view",
      "type": "function"
    },
    {
      "inputs": [
        {
          "internalType": "address",
          "name": "renter_addr",
          "type": "address"
        }
      ],
      "name": "getRenterAccumulatedTotal",
      "outputs": [
        {
          "internalType": "uint256",
          "name": "accumulated",
          "type": "uint256"
        }
      ],
      "stateMutability": "view",
      "type": "function"
    },
    {
      "inputs": [
        {
          "internalType": "address",
          "name": "renter_addr",
          "type": "address"
        }
      ],
      "name": "getRenterAccumulatingPerBlock",
      "outputs": [
        {
          "internalType": "uint256",
          "name": "accumulating_per_block",
          "type": "uint256"
        }
      ],
      "stateMutability": "view",
      "type": "function"
    },
    {
      "inputs": [
        {
          "internalType": "address",
          "name": "renter_addr",
          "type": "address"
        }
      ],
      "name": "killRenter",
      "outputs": [],
      "stateMutability": "nonpayable",
      "type": "function"
    },
    {
      "inputs": [
        {
          "internalType": "uint256",
          "name": "geo_lat",
          "type": "uint256"
        },
        {
          "internalType": "uint256",
          "name": "geo_y",
          "type": "uint256"
        }
      ],
      "name": "registerBillboard",
      "outputs": [],
      "stateMutability": "nonpayable",
      "type": "function"
    },
    {
      "inputs": [
        {
          "internalType": "string",
          "name": "ad_url",
          "type": "string"
        },
        {
          "internalType": "address",
          "name": "billboard_addr",
          "type": "address"
        },
        {
          "internalType": "uint256",
          "name": "cost_per_block",
          "type": "uint256"
        }
      ],
      "name": "rentBillboard",
      "outputs": [],
      "stateMutability": "payable",
      "type": "function"
    },
    {
      "inputs": [
        {
          "internalType": "address",
          "name": "",
          "type": "address"
        }
      ],
      "name": "renter_stakes",
      "outputs": [
        {
          "internalType": "uint256",
          "name": "",
          "type": "uint256"
        }
      ],
      "stateMutability": "view",
      "type": "function"
    },
    {
      "inputs": [],
      "name": "unstakeRent",
      "outputs": [],
      "stateMutability": "nonpayable",
      "type": "function"
    }
  ],
  "bytecode": "0x608060405234801561001057600080fd5b50612738806100206000396000f3fe6080604052600436106100a75760003560e01c8063ad3f2a2211610064578063ad3f2a22146101f4578063c36d0e2214610231578063cd3878e91461026e578063d2838cfc14610285578063d560deb0146102c8578063f8628bf3146102f1576100a7565b80630af7ac51146100ac57806320caf786146100e95780632343d84c1461011457806337a44081146101515780634d90dff51461018e57806385c39790146101b7575b600080fd5b3480156100b857600080fd5b506100d360048036038101906100ce9190611b1d565b61030d565b6040516100e09190611bda565b60405180910390f35b3480156100f557600080fd5b506100fe610333565b60405161010b9190611c15565b60405180910390f35b34801561012057600080fd5b5061013b60048036038101906101369190611b1d565b610338565b6040516101489190611c15565b60405180910390f35b34801561015d57600080fd5b5061017860048036038101906101739190611b1d565b6105c8565b6040516101859190611c15565b60405180910390f35b34801561019a57600080fd5b506101b560048036038101906101b09190611c5c565b610850565b005b3480156101c357600080fd5b506101de60048036038101906101d99190611b1d565b610b3b565b6040516101eb9190611c15565b60405180910390f35b34801561020057600080fd5b5061021b60048036038101906102169190611b1d565b610b53565b6040516102289190611c15565b60405180910390f35b34801561023d57600080fd5b5061025860048036038101906102539190611c9c565b610cd0565b6040516102659190611cd8565b60405180910390f35b34801561027a57600080fd5b50610283610d0f565b005b34801561029157600080fd5b506102ac60048036038101906102a79190611b1d565b610e67565b6040516102bf9796959493929190611d31565b60405180910390f35b3480156102d457600080fd5b506102ef60048036038101906102ea9190611b1d565b610f8f565b005b61030b60048036038101906103069190611edd565b6111d6565b005b6060600091506040518060800160405280605481526020016126af605491399050919050565b600281565b600080600090505b6001805490508110156105c25760008060006001848154811061036657610365611f4c565b5b9060005260206000200160009054906101000a900473ffffffffffffffffffffffffffffffffffffffff1673ffffffffffffffffffffffffffffffffffffffff1673ffffffffffffffffffffffffffffffffffffffff1681526020019081526020016000206040518060e0016040529081600082015481526020016001820160009054906101000a900473ffffffffffffffffffffffffffffffffffffffff1673ffffffffffffffffffffffffffffffffffffffff1673ffffffffffffffffffffffffffffffffffffffff1681526020016002820160405180604001604052908160008201548152602001600182015481525050815260200160048201805461046e90611faa565b80601f016020809104026020016040519081016040528092919081815260200182805461049a90611faa565b80156104e75780601f106104bc576101008083540402835291602001916104e7565b820191906000526020600020905b8154815290600101906020018083116104ca57829003601f168201915b505050505081526020016005820160009054906101000a900473ffffffffffffffffffffffffffffffffffffffff1673ffffffffffffffffffffffffffffffffffffffff1673ffffffffffffffffffffffffffffffffffffffff1681526020016006820154815260200160078201548152505090508373ffffffffffffffffffffffffffffffffffffffff16816080015173ffffffffffffffffffffffffffffffffffffffff16036105ae576105a08160200151610b53565b836105ab919061200a565b92505b5080806105ba9061203e565b915050610340565b50919050565b600080600090505b60018054905081101561084a576000806000600184815481106105f6576105f5611f4c565b5b9060005260206000200160009054906101000a900473ffffffffffffffffffffffffffffffffffffffff1673ffffffffffffffffffffffffffffffffffffffff1673ffffffffffffffffffffffffffffffffffffffff1681526020019081526020016000206040518060e0016040529081600082015481526020016001820160009054906101000a900473ffffffffffffffffffffffffffffffffffffffff1673ffffffffffffffffffffffffffffffffffffffff1673ffffffffffffffffffffffffffffffffffffffff168152602001600282016040518060400160405290816000820154815260200160018201548152505081526020016004820180546106fe90611faa565b80601f016020809104026020016040519081016040528092919081815260200182805461072a90611faa565b80156107775780601f1061074c57610100808354040283529160200191610777565b820191906000526020600020905b81548152906001019060200180831161075a57829003601f168201915b505050505081526020016005820160009054906101000a900473ffffffffffffffffffffffffffffffffffffffff1673ffffffffffffffffffffffffffffffffffffffff1673ffffffffffffffffffffffffffffffffffffffff1681526020016006820154815260200160078201548152505090508373ffffffffffffffffffffffffffffffffffffffff16816080015173ffffffffffffffffffffffffffffffffffffffff1603610836578060a0015183610833919061200a565b92505b5080806108429061203e565b9150506105d0565b50919050565b600073ffffffffffffffffffffffffffffffffffffffff166000803373ffffffffffffffffffffffffffffffffffffffff1673ffffffffffffffffffffffffffffffffffffffff16815260200190815260200160002060010160009054906101000a900473ffffffffffffffffffffffffffffffffffffffff1673ffffffffffffffffffffffffffffffffffffffff1614610920576040517f08c379a0000000000000000000000000000000000000000000000000000000008152600401610917906120d2565b60405180910390fd5b6000604051806040016040528084815260200183815250905060006040518060e00160405280600081526020013373ffffffffffffffffffffffffffffffffffffffff168152602001838152602001604051806020016040528060008152508152602001600073ffffffffffffffffffffffffffffffffffffffff1681526020016000815260200160008152509050806000803373ffffffffffffffffffffffffffffffffffffffff1673ffffffffffffffffffffffffffffffffffffffff1681526020019081526020016000206000820151816000015560208201518160010160006101000a81548173ffffffffffffffffffffffffffffffffffffffff021916908373ffffffffffffffffffffffffffffffffffffffff160217905550604082015181600201600082015181600001556020820151816001015550506060820151816004019081610a73919061229e565b5060808201518160050160006101000a81548173ffffffffffffffffffffffffffffffffffffffff021916908373ffffffffffffffffffffffffffffffffffffffff16021790555060a0820151816006015560c082015181600701559050506001339080600181540180825580915050600190039060005260206000200160009091909190916101000a81548173ffffffffffffffffffffffffffffffffffffffff021916908373ffffffffffffffffffffffffffffffffffffffff16021790555050505050565b60026020528060005260406000206000915090505481565b60008073ffffffffffffffffffffffffffffffffffffffff166000808473ffffffffffffffffffffffffffffffffffffffff1673ffffffffffffffffffffffffffffffffffffffff16815260200190815260200160002060010160009054906101000a900473ffffffffffffffffffffffffffffffffffffffff1673ffffffffffffffffffffffffffffffffffffffff1603610c24576040517f08c379a0000000000000000000000000000000000000000000000000000000008152600401610c1b906123bc565b60405180910390fd5b60008060008473ffffffffffffffffffffffffffffffffffffffff1673ffffffffffffffffffffffffffffffffffffffff16815260200190815260200160002060070154905060008060008573ffffffffffffffffffffffffffffffffffffffff1673ffffffffffffffffffffffffffffffffffffffff168152602001908152602001600020600601549050808243610cbd91906123dc565b610cc79190612410565b92505050919050565b60018181548110610ce057600080fd5b906000526020600020016000915054906101000a900473ffffffffffffffffffffffffffffffffffffffff1681565b6000600260003373ffffffffffffffffffffffffffffffffffffffff1673ffffffffffffffffffffffffffffffffffffffff1681526020019081526020016000205411610d91576040517f08c379a0000000000000000000000000000000000000000000000000000000008152600401610d889061249e565b60405180910390fd5b610d9a3361151a565b3373ffffffffffffffffffffffffffffffffffffffff166108fc600260003373ffffffffffffffffffffffffffffffffffffffff1673ffffffffffffffffffffffffffffffffffffffff168152602001908152602001600020549081150290604051600060405180830381858888f19350505050158015610e1f573d6000803e3d6000fd5b506000600260003373ffffffffffffffffffffffffffffffffffffffff1673ffffffffffffffffffffffffffffffffffffffff16815260200190815260200160002081905550565b60006020528060005260406000206000915090508060000154908060010160009054906101000a900473ffffffffffffffffffffffffffffffffffffffff1690806002016040518060400160405290816000820154815260200160018201548152505090806004018054610eda90611faa565b80601f0160208091040260200160405190810160405280929190818152602001828054610f0690611faa565b8015610f535780601f10610f2857610100808354040283529160200191610f53565b820191906000526020600020905b815481529060010190602001808311610f3657829003601f168201915b5050505050908060050160009054906101000a900473ffffffffffffffffffffffffffffffffffffffff16908060060154908060070154905087565b6000600260008373ffffffffffffffffffffffffffffffffffffffff1673ffffffffffffffffffffffffffffffffffffffff1681526020019081526020016000205411611011576040517f08c379a00000000000000000000000000000000000000000000000000000000081526004016110089061249e565b60405180910390fd5b600061101c82610338565b90506000611029836105c8565b90506000606460028060008773ffffffffffffffffffffffffffffffffffffffff1673ffffffffffffffffffffffffffffffffffffffff1681526020019081526020016000205461107a9190612410565b61108491906124ed565b9050806002836110949190612410565b8461109f919061200a565b6110a9919061200a565b600260008673ffffffffffffffffffffffffffffffffffffffff1673ffffffffffffffffffffffffffffffffffffffff16815260200190815260200160002054111561112a576040517f08c379a000000000000000000000000000000000000000000000000000000000815260040161112190612590565b60405180910390fd5b80600260008673ffffffffffffffffffffffffffffffffffffffff1673ffffffffffffffffffffffffffffffffffffffff168152602001908152602001600020600082825461117991906123dc565b925050819055503373ffffffffffffffffffffffffffffffffffffffff166108fc829081150290604051600060405180830381858888f193505050501580156111c6573d6000803e3d6000fd5b506111d08461151a565b50505050565b600073ffffffffffffffffffffffffffffffffffffffff166000808473ffffffffffffffffffffffffffffffffffffffff1673ffffffffffffffffffffffffffffffffffffffff16815260200190815260200160002060010160009054906101000a900473ffffffffffffffffffffffffffffffffffffffff1673ffffffffffffffffffffffffffffffffffffffff16036112a6576040517f08c379a000000000000000000000000000000000000000000000000000000000815260040161129d906123bc565b60405180910390fd5b806000808473ffffffffffffffffffffffffffffffffffffffff1673ffffffffffffffffffffffffffffffffffffffff16815260200190815260200160002060060154111561132a576040517f08c379a000000000000000000000000000000000000000000000000000000000815260040161132190612622565b60405180910390fd5b8034101561136d576040517f08c379a00000000000000000000000000000000000000000000000000000000081526004016113649061268e565b60405180910390fd5b61137682611796565b34600260003373ffffffffffffffffffffffffffffffffffffffff1673ffffffffffffffffffffffffffffffffffffffff16815260200190815260200160002081905550336000808473ffffffffffffffffffffffffffffffffffffffff1673ffffffffffffffffffffffffffffffffffffffff16815260200190815260200160002060050160006101000a81548173ffffffffffffffffffffffffffffffffffffffff021916908373ffffffffffffffffffffffffffffffffffffffff160217905550806000808473ffffffffffffffffffffffffffffffffffffffff1673ffffffffffffffffffffffffffffffffffffffff16815260200190815260200160002060060181905550436000808473ffffffffffffffffffffffffffffffffffffffff1673ffffffffffffffffffffffffffffffffffffffff16815260200190815260200160002060070181905550826000808473ffffffffffffffffffffffffffffffffffffffff1673ffffffffffffffffffffffffffffffffffffffff1681526020019081526020016000206004019081611514919061229e565b50505050565b60005b6001805490508110156117925760008060006001848154811061154357611542611f4c565b5b9060005260206000200160009054906101000a900473ffffffffffffffffffffffffffffffffffffffff1673ffffffffffffffffffffffffffffffffffffffff1673ffffffffffffffffffffffffffffffffffffffff1681526020019081526020016000206040518060e0016040529081600082015481526020016001820160009054906101000a900473ffffffffffffffffffffffffffffffffffffffff1673ffffffffffffffffffffffffffffffffffffffff1673ffffffffffffffffffffffffffffffffffffffff1681526020016002820160405180604001604052908160008201548152602001600182015481525050815260200160048201805461164b90611faa565b80601f016020809104026020016040519081016040528092919081815260200182805461167790611faa565b80156116c45780601f10611699576101008083540402835291602001916116c4565b820191906000526020600020905b8154815290600101906020018083116116a757829003601f168201915b505050505081526020016005820160009054906101000a900473ffffffffffffffffffffffffffffffffffffffff1673ffffffffffffffffffffffffffffffffffffffff1673ffffffffffffffffffffffffffffffffffffffff1681526020016006820154815260200160078201548152505090508273ffffffffffffffffffffffffffffffffffffffff16816080015173ffffffffffffffffffffffffffffffffffffffff160361177e5761177d8160200151611796565b5b50808061178a9061203e565b91505061151d565b5050565b60006117a182610b53565b905060008060008473ffffffffffffffffffffffffffffffffffffffff1673ffffffffffffffffffffffffffffffffffffffff16815260200190815260200160002060050160009054906101000a900473ffffffffffffffffffffffffffffffffffffffff1690506000600260008373ffffffffffffffffffffffffffffffffffffffff1673ffffffffffffffffffffffffffffffffffffffff16815260200190815260200160002054905082600260008473ffffffffffffffffffffffffffffffffffffffff1673ffffffffffffffffffffffffffffffffffffffff1681526020019081526020016000205411156118ef5782600260008473ffffffffffffffffffffffffffffffffffffffff1673ffffffffffffffffffffffffffffffffffffffff16815260200190815260200160002060008282546118e391906123dc565b92505081905550611935565b6000600260008473ffffffffffffffffffffffffffffffffffffffff1673ffffffffffffffffffffffffffffffffffffffff168152602001908152602001600020819055505b6000600260008473ffffffffffffffffffffffffffffffffffffffff1673ffffffffffffffffffffffffffffffffffffffff168152602001908152602001600020549050808261198591906123dc565b6000808773ffffffffffffffffffffffffffffffffffffffff1673ffffffffffffffffffffffffffffffffffffffff16815260200190815260200160002060000160008282546119d5919061200a565b9250508190555060008060008773ffffffffffffffffffffffffffffffffffffffff1673ffffffffffffffffffffffffffffffffffffffff1681526020019081526020016000206006018190555060008060008773ffffffffffffffffffffffffffffffffffffffff1673ffffffffffffffffffffffffffffffffffffffff16815260200190815260200160002060050160006101000a81548173ffffffffffffffffffffffffffffffffffffffff021916908373ffffffffffffffffffffffffffffffffffffffff1602179055505050505050565b6000604051905090565b600080fd5b600080fd5b600073ffffffffffffffffffffffffffffffffffffffff82169050919050565b6000611aea82611abf565b9050919050565b611afa81611adf565b8114611b0557600080fd5b50565b600081359050611b1781611af1565b92915050565b600060208284031215611b3357611b32611ab5565b5b6000611b4184828501611b08565b91505092915050565b600081519050919050565b600082825260208201905092915050565b60005b83811015611b84578082015181840152602081019050611b69565b60008484015250505050565b6000601f19601f8301169050919050565b6000611bac82611b4a565b611bb68185611b55565b9350611bc6818560208601611b66565b611bcf81611b90565b840191505092915050565b60006020820190508181036000830152611bf48184611ba1565b905092915050565b6000819050919050565b611c0f81611bfc565b82525050565b6000602082019050611c2a6000830184611c06565b92915050565b611c3981611bfc565b8114611c4457600080fd5b50565b600081359050611c5681611c30565b92915050565b60008060408385031215611c7357611c72611ab5565b5b6000611c8185828601611c47565b9250506020611c9285828601611c47565b9150509250929050565b600060208284031215611cb257611cb1611ab5565b5b6000611cc084828501611c47565b91505092915050565b611cd281611adf565b82525050565b6000602082019050611ced6000830184611cc9565b92915050565b611cfc81611bfc565b82525050565b604082016000820151611d186000850182611cf3565b506020820151611d2b6020850182611cf3565b50505050565b600061010082019050611d47600083018a611c06565b611d546020830189611cc9565b611d616040830188611d02565b8181036080830152611d738187611ba1565b9050611d8260a0830186611cc9565b611d8f60c0830185611c06565b611d9c60e0830184611c06565b98975050505050505050565b600080fd5b600080fd5b7f4e487b7100000000000000000000000000000000000000000000000000000000600052604160045260246000fd5b611dea82611b90565b810181811067ffffffffffffffff82111715611e0957611e08611db2565b5b80604052505050565b6000611e1c611aab565b9050611e288282611de1565b919050565b600067ffffffffffffffff821115611e4857611e47611db2565b5b611e5182611b90565b9050602081019050919050565b82818337600083830152505050565b6000611e80611e7b84611e2d565b611e12565b905082815260208101848484011115611e9c57611e9b611dad565b5b611ea7848285611e5e565b509392505050565b600082601f830112611ec457611ec3611da8565b5b8135611ed4848260208601611e6d565b91505092915050565b600080600060608486031215611ef657611ef5611ab5565b5b600084013567ffffffffffffffff811115611f1457611f13611aba565b5b611f2086828701611eaf565b9350506020611f3186828701611b08565b9250506040611f4286828701611c47565b9150509250925092565b7f4e487b7100000000000000000000000000000000000000000000000000000000600052603260045260246000fd5b7f4e487b7100000000000000000000000000000000000000000000000000000000600052602260045260246000fd5b60006002820490506001821680611fc257607f821691505b602082108103611fd557611fd4611f7b565b5b50919050565b7f4e487b7100000000000000000000000000000000000000000000000000000000600052601160045260246000fd5b600061201582611bfc565b915061202083611bfc565b925082820190508082111561203857612037611fdb565b5b92915050565b600061204982611bfc565b91507fffffffffffffffffffffffffffffffffffffffffffffffffffffffffffffffff820361207b5761207a611fdb565b5b600182019050919050565b7f42696c6c626f61726420616c7265616479206578697374730000000000000000600082015250565b60006120bc601883611b55565b91506120c782612086565b602082019050919050565b600060208201905081810360008301526120eb816120af565b9050919050565b60008190508160005260206000209050919050565b60006020601f8301049050919050565b600082821b905092915050565b6000600883026121547fffffffffffffffffffffffffffffffffffffffffffffffffffffffffffffffff82612117565b61215e8683612117565b95508019841693508086168417925050509392505050565b6000819050919050565b600061219b61219661219184611bfc565b612176565b611bfc565b9050919050565b6000819050919050565b6121b583612180565b6121c96121c1826121a2565b848454612124565b825550505050565b600090565b6121de6121d1565b6121e98184846121ac565b505050565b5b8181101561220d576122026000826121d6565b6001810190506121ef565b5050565b601f82111561225257612223816120f2565b61222c84612107565b8101602085101561223b578190505b61224f61224785612107565b8301826121ee565b50505b505050565b600082821c905092915050565b600061227560001984600802612257565b1980831691505092915050565b600061228e8383612264565b9150826002028217905092915050565b6122a782611b4a565b67ffffffffffffffff8111156122c0576122bf611db2565b5b6122ca8254611faa565b6122d5828285612211565b600060209050601f83116001811461230857600084156122f6578287015190505b6123008582612282565b865550612368565b601f198416612316866120f2565b60005b8281101561233e57848901518255600182019150602085019450602081019050612319565b8683101561235b5784890151612357601f891682612264565b8355505b6001600288020188555050505b505050505050565b7f42696c6c626f61726420646f6573206e6f742065786973740000000000000000600082015250565b60006123a6601883611b55565b91506123b182612370565b602082019050919050565b600060208201905081810360008301526123d581612399565b9050919050565b60006123e782611bfc565b91506123f283611bfc565b925082820390508181111561240a57612409611fdb565b5b92915050565b600061241b82611bfc565b915061242683611bfc565b925082820261243481611bfc565b9150828204841483151761244b5761244a611fdb565b5b5092915050565b7f52656e74657220686173206e6f207374616b6500000000000000000000000000600082015250565b6000612488601383611b55565b915061249382612452565b602082019050919050565b600060208201905081810360008301526124b78161247b565b9050919050565b7f4e487b7100000000000000000000000000000000000000000000000000000000600052601260045260246000fd5b60006124f882611bfc565b915061250383611bfc565b925082612513576125126124be565b5b828204905092915050565b7f52656e746572207374696c6c2068617320656e6f756768207374616b6520746f60008201527f20636f76657220636f7374730000000000000000000000000000000000000000602082015250565b600061257a602c83611b55565b91506125858261251e565b604082019050919050565b600060208201905081810360008301526125a98161256d565b9050919050565b7f4e657720636f73742070657220626c6f636b2068617320746f2062652068696760008201527f686572207468616e2070726576696f757320636f73742070657220626c6f636b602082015250565b600061260c604083611b55565b9150612617826125b0565b604082019050919050565b6000602082019050818103600083015261263b816125ff565b9050919050565b7f4e6f7420656e6f756768207374616b652070726f766964656400000000000000600082015250565b6000612678601983611b55565b915061268382612642565b602082019050919050565b600060208201905081810360008301526126a78161266b565b905091905056fe68747470733a2f2f7261772e67697468756275736572636f6e74656e742e636f6d2f6c6f72626b652f426c6f636b426f6172642f6d61696e2f6173736574732f64656661756c745f68617264776172652e676966a2646970667358221220fa061f2b33e53bef8ecce122f5b8e7b77bb6849f7892a039c67281439d6233eb64736f6c63430008120033",
  "linkReferences": {},
  "deployedLinkReferences": {}
}