{
  "_format": "hh-sol-artifact-1",
  "contractName": "BlockBoard",
  "sourceName": "contracts/BlockBoard.sol",
  "abi": [
    {
      "inputs": [
        {
          "internalType": "address",
          "name": "nft_contract_addr",
          "type": "address"
        }
      ],
      "stateMutability": "nonpayable",
      "type": "constructor"
    },
    {
      "inputs": [],
      "name": "BOUNTY_PERCENTAGE",
      "outputs": [
        {
          "internalType": "uint256",
          "name": "",
          "type": "uint256"
        }
      ],
      "stateMutability": "view",
      "type": "function"
    },
    {
      "inputs": [
        {
          "internalType": "uint256",
          "name": "",
          "type": "uint256"
        }
      ],
      "name": "billboard_token_list",
      "outputs": [
        {
          "internalType": "uint256",
          "name": "",
          "type": "uint256"
        }
      ],
      "stateMutability": "view",
      "type": "function"
    },
    {
      "inputs": [
        {
          "internalType": "uint256",
          "name": "",
          "type": "uint256"
        }
      ],
      "name": "billboards_map",
      "outputs": [
        {
          "internalType": "bool",
          "name": "exists",
          "type": "bool"
        },
        {
          "internalType": "uint256",
          "name": "earnings",
          "type": "uint256"
        },
        {
          "internalType": "uint256",
          "name": "token_id",
          "type": "uint256"
        },
        {
          "internalType": "address",
          "name": "owner",
          "type": "address"
        },
        {
          "components": [
            {
              "internalType": "uint256",
              "name": "lat",
              "type": "uint256"
            },
            {
              "internalType": "uint256",
              "name": "long",
              "type": "uint256"
            }
          ],
          "internalType": "struct BlockBoard.GeoPoint",
          "name": "location",
          "type": "tuple"
        },
        {
          "internalType": "string",
          "name": "ad_url",
          "type": "string"
        },
        {
          "internalType": "address",
          "name": "renter",
          "type": "address"
        },
        {
          "internalType": "uint256",
          "name": "cost_per_block",
          "type": "uint256"
        },
        {
          "internalType": "uint256",
          "name": "block_of_rent",
          "type": "uint256"
        }
      ],
      "stateMutability": "view",
      "type": "function"
    },
    {
      "inputs": [
        {
          "internalType": "address",
          "name": "billboard_addr",
          "type": "address"
        }
      ],
      "name": "getAd",
      "outputs": [
        {
          "internalType": "string",
          "name": "ad_url",
          "type": "string"
        }
      ],
      "stateMutability": "pure",
      "type": "function"
    },
    {
      "inputs": [
        {
          "internalType": "uint256",
          "name": "billboard_token_id",
          "type": "uint256"
        }
      ],
      "name": "getRentForBillboard",
      "outputs": [
        {
          "internalType": "uint256",
          "name": "accumulated",
          "type": "uint256"
        }
      ],
      "stateMutability": "view",
      "type": "function"
    },
    {
      "inputs": [
        {
          "internalType": "address",
          "name": "renter_addr",
          "type": "address"
        }
      ],
      "name": "getRenterAccumulatedTotal",
      "outputs": [
        {
          "internalType": "uint256",
          "name": "accumulated",
          "type": "uint256"
        }
      ],
      "stateMutability": "view",
      "type": "function"
    },
    {
      "inputs": [
        {
          "internalType": "address",
          "name": "renter_addr",
          "type": "address"
        }
      ],
      "name": "getRenterAccumulatingPerBlock",
      "outputs": [
        {
          "internalType": "uint256",
          "name": "accumulating_per_block",
          "type": "uint256"
        }
      ],
      "stateMutability": "view",
      "type": "function"
    },
    {
      "inputs": [
        {
          "internalType": "address",
          "name": "renter_addr",
          "type": "address"
        }
      ],
      "name": "killRenter",
      "outputs": [],
      "stateMutability": "nonpayable",
      "type": "function"
    },
    {
      "inputs": [
        {
          "internalType": "uint256",
          "name": "geo_lat",
          "type": "uint256"
        },
        {
          "internalType": "uint256",
          "name": "geo_y",
          "type": "uint256"
        }
      ],
      "name": "registerBillboard",
      "outputs": [],
      "stateMutability": "nonpayable",
      "type": "function"
    },
    {
      "inputs": [
        {
          "internalType": "string",
          "name": "ad_url",
          "type": "string"
        },
        {
          "internalType": "uint256",
          "name": "billboard_token_id",
          "type": "uint256"
        },
        {
          "internalType": "uint256",
          "name": "cost_per_block",
          "type": "uint256"
        }
      ],
      "name": "rentBillboard",
      "outputs": [],
      "stateMutability": "payable",
      "type": "function"
    },
    {
      "inputs": [
        {
          "internalType": "address",
          "name": "",
          "type": "address"
        }
      ],
      "name": "renter_stakes",
      "outputs": [
        {
          "internalType": "uint256",
          "name": "",
          "type": "uint256"
        }
      ],
      "stateMutability": "view",
      "type": "function"
    },
    {
      "inputs": [],
      "name": "unstakeRent",
      "outputs": [],
      "stateMutability": "nonpayable",
      "type": "function"
    }
  ],
  "bytecode": "0x60806040523480156200001157600080fd5b50604051620024ff380380620024ff8339818101604052810190620000379190620000e8565b806000806101000a81548173ffffffffffffffffffffffffffffffffffffffff021916908373ffffffffffffffffffffffffffffffffffffffff160217905550506200011a565b600080fd5b600073ffffffffffffffffffffffffffffffffffffffff82169050919050565b6000620000b08262000083565b9050919050565b620000c281620000a3565b8114620000ce57600080fd5b50565b600081519050620000e281620000b7565b92915050565b6000602082840312156200010157620001006200007e565b5b60006200011184828501620000d1565b91505092915050565b6123d5806200012a6000396000f3fe6080604052600436106100a75760003560e01c80634f8837e1116100645780634f8837e1146101d35780637cacc1791461021057806385c397901461024d57806394b76e0e1461028a578063cd3878e9146102cf578063d560deb0146102e6576100a7565b80630af7ac51146100ac5780630b8005fe146100e957806320caf786146101055780632343d84c1461013057806337a440811461016d5780634d90dff5146101aa575b600080fd5b3480156100b857600080fd5b506100d360048036038101906100ce91906117ab565b61030f565b6040516100e09190611868565b60405180910390f35b61010360048036038101906100fe91906119f5565b610335565b005b34801561011157600080fd5b5061011a61053c565b6040516101279190611a73565b60405180910390f35b34801561013c57600080fd5b50610157600480360381019061015291906117ab565b610541565b6040516101649190611a73565b60405180910390f35b34801561017957600080fd5b50610194600480360381019061018f91906117ab565b6107a8565b6040516101a19190611a73565b60405180910390f35b3480156101b657600080fd5b506101d160048036038101906101cc9190611a8e565b610a07565b005b3480156101df57600080fd5b506101fa60048036038101906101f59190611ace565b610c9a565b6040516102079190611a73565b60405180910390f35b34801561021c57600080fd5b5061023760048036038101906102329190611ace565b610cbe565b6040516102449190611a73565b60405180910390f35b34801561025957600080fd5b50610274600480360381019061026f91906117ab565b610d80565b6040516102819190611a73565b60405180910390f35b34801561029657600080fd5b506102b160048036038101906102ac9190611ace565b610d98565b6040516102c699989796959493929190611b63565b60405180910390f35b3480156102db57600080fd5b506102e4610ed9565b005b3480156102f257600080fd5b5061030d600480360381019061030891906117ab565b611031565b005b60606000915060405180608001604052806054815260200161234c605491399050919050565b600115156001600084815260200190815260200160002060000160009054906101000a900460ff1615151461039f576040517f08c379a000000000000000000000000000000000000000000000000000000000815260040161039690611c44565b60405180910390fd5b80600160008481526020019081526020016000206008015411156103f8576040517f08c379a00000000000000000000000000000000000000000000000000000000081526004016103ef90611cd6565b60405180910390fd5b8034101561043b576040517f08c379a000000000000000000000000000000000000000000000000000000000815260040161043290611d42565b60405180910390fd5b61044482611279565b34600360003373ffffffffffffffffffffffffffffffffffffffff1673ffffffffffffffffffffffffffffffffffffffff16815260200190815260200160002081905550336001600084815260200190815260200160002060070160006101000a81548173ffffffffffffffffffffffffffffffffffffffff021916908373ffffffffffffffffffffffffffffffffffffffff160217905550806001600084815260200190815260200160002060080181905550436001600084815260200190815260200160002060090181905550826001600084815260200190815260200160002060060190816105369190611f6e565b50505050565b600281565b6000805b6002805490508110156107a2576000600160006002848154811061056c5761056b612040565b5b90600052602060002001548152602001908152602001600020604051806101200160405290816000820160009054906101000a900460ff1615151515815260200160018201548152602001600282015481526020016003820160009054906101000a900473ffffffffffffffffffffffffffffffffffffffff1673ffffffffffffffffffffffffffffffffffffffff1673ffffffffffffffffffffffffffffffffffffffff1681526020016004820160405180604001604052908160008201548152602001600182015481525050815260200160068201805461064e90611d91565b80601f016020809104026020016040519081016040528092919081815260200182805461067a90611d91565b80156106c75780601f1061069c576101008083540402835291602001916106c7565b820191906000526020600020905b8154815290600101906020018083116106aa57829003601f168201915b505050505081526020016007820160009054906101000a900473ffffffffffffffffffffffffffffffffffffffff1673ffffffffffffffffffffffffffffffffffffffff1673ffffffffffffffffffffffffffffffffffffffff1681526020016008820154815260200160098201548152505090508373ffffffffffffffffffffffffffffffffffffffff168160c0015173ffffffffffffffffffffffffffffffffffffffff160361078e576107808160400151610cbe565b8361078b919061209e565b92505b50808061079a906120d2565b915050610545565b50919050565b6000805b600280549050811015610a0157600060016000600284815481106107d3576107d2612040565b5b90600052602060002001548152602001908152602001600020604051806101200160405290816000820160009054906101000a900460ff1615151515815260200160018201548152602001600282015481526020016003820160009054906101000a900473ffffffffffffffffffffffffffffffffffffffff1673ffffffffffffffffffffffffffffffffffffffff1673ffffffffffffffffffffffffffffffffffffffff168152602001600482016040518060400160405290816000820154815260200160018201548152505081526020016006820180546108b590611d91565b80601f01602080910402602001604051908101604052809291908181526020018280546108e190611d91565b801561092e5780601f106109035761010080835404028352916020019161092e565b820191906000526020600020905b81548152906001019060200180831161091157829003601f168201915b505050505081526020016007820160009054906101000a900473ffffffffffffffffffffffffffffffffffffffff1673ffffffffffffffffffffffffffffffffffffffff1673ffffffffffffffffffffffffffffffffffffffff1681526020016008820154815260200160098201548152505090508373ffffffffffffffffffffffffffffffffffffffff168160c0015173ffffffffffffffffffffffffffffffffffffffff16036109ed578060e00151836109ea919061209e565b92505b5080806109f9906120d2565b9150506107ac565b50919050565b6000604051806040016040528084815260200183815250905060008060009054906101000a900473ffffffffffffffffffffffffffffffffffffffff1673ffffffffffffffffffffffffffffffffffffffff16636a627842336040518263ffffffff1660e01b8152600401610a7c919061211a565b6020604051808303816000875af1158015610a9b573d6000803e3d6000fd5b505050506040513d601f19601f82011682018060405250810190610abf919061214a565b90506000604051806101200160405280600115158152602001600081526020018381526020013373ffffffffffffffffffffffffffffffffffffffff168152602001848152602001604051806020016040528060008152508152602001600073ffffffffffffffffffffffffffffffffffffffff16815260200160008152602001600081525090506002829080600181540180825580915050600190039060005260206000200160009091909190915055806001600084815260200190815260200160002060008201518160000160006101000a81548160ff021916908315150217905550602082015181600101556040820151816002015560608201518160030160006101000a81548173ffffffffffffffffffffffffffffffffffffffff021916908373ffffffffffffffffffffffffffffffffffffffff1602179055506080820151816004016000820151816000015560208201518160010155505060a0820151816006019081610c339190611f6e565b5060c08201518160070160006101000a81548173ffffffffffffffffffffffffffffffffffffffff021916908373ffffffffffffffffffffffffffffffffffffffff16021790555060e0820151816008015561010082015181600901559050505050505050565b60028181548110610caa57600080fd5b906000526020600020016000915090505481565b6000600115156001600084815260200190815260200160002060000160009054906101000a900460ff16151514610d2a576040517f08c379a0000000000000000000000000000000000000000000000000000000008152600401610d2190611c44565b60405180910390fd5b600060016000848152602001908152602001600020600901549050600060016000858152602001908152602001600020600801549050808243610d6d9190612177565b610d7791906121ab565b92505050919050565b60036020528060005260406000206000915090505481565b60016020528060005260406000206000915090508060000160009054906101000a900460ff16908060010154908060020154908060030160009054906101000a900473ffffffffffffffffffffffffffffffffffffffff1690806004016040518060400160405290816000820154815260200160018201548152505090806006018054610e2490611d91565b80601f0160208091040260200160405190810160405280929190818152602001828054610e5090611d91565b8015610e9d5780601f10610e7257610100808354040283529160200191610e9d565b820191906000526020600020905b815481529060010190602001808311610e8057829003601f168201915b5050505050908060070160009054906101000a900473ffffffffffffffffffffffffffffffffffffffff16908060080154908060090154905089565b6000600360003373ffffffffffffffffffffffffffffffffffffffff1673ffffffffffffffffffffffffffffffffffffffff1681526020019081526020016000205411610f5b576040517f08c379a0000000000000000000000000000000000000000000000000000000008152600401610f5290612239565b60405180910390fd5b610f64336114e2565b3373ffffffffffffffffffffffffffffffffffffffff166108fc600360003373ffffffffffffffffffffffffffffffffffffffff1673ffffffffffffffffffffffffffffffffffffffff168152602001908152602001600020549081150290604051600060405180830381858888f19350505050158015610fe9573d6000803e3d6000fd5b506000600360003373ffffffffffffffffffffffffffffffffffffffff1673ffffffffffffffffffffffffffffffffffffffff16815260200190815260200160002081905550565b6000600360008373ffffffffffffffffffffffffffffffffffffffff1673ffffffffffffffffffffffffffffffffffffffff16815260200190815260200160002054116110b3576040517f08c379a00000000000000000000000000000000000000000000000000000000081526004016110aa90612239565b60405180910390fd5b60006110be82610541565b905060006110cb836107a8565b9050600060646002600360008773ffffffffffffffffffffffffffffffffffffffff1673ffffffffffffffffffffffffffffffffffffffff1681526020019081526020016000205461111d91906121ab565b6111279190612288565b90508060028361113791906121ab565b84611142919061209e565b61114c919061209e565b600360008673ffffffffffffffffffffffffffffffffffffffff1673ffffffffffffffffffffffffffffffffffffffff1681526020019081526020016000205411156111cd576040517f08c379a00000000000000000000000000000000000000000000000000000000081526004016111c49061232b565b60405180910390fd5b80600360008673ffffffffffffffffffffffffffffffffffffffff1673ffffffffffffffffffffffffffffffffffffffff168152602001908152602001600020600082825461121c9190612177565b925050819055503373ffffffffffffffffffffffffffffffffffffffff166108fc829081150290604051600060405180830381858888f19350505050158015611269573d6000803e3d6000fd5b50611273846114e2565b50505050565b600061128482610cbe565b905060006001600084815260200190815260200160002060070160009054906101000a900473ffffffffffffffffffffffffffffffffffffffff1690506000600360008373ffffffffffffffffffffffffffffffffffffffff1673ffffffffffffffffffffffffffffffffffffffff16815260200190815260200160002054905082600360008473ffffffffffffffffffffffffffffffffffffffff1673ffffffffffffffffffffffffffffffffffffffff1681526020019081526020016000205411156113a75782600360008473ffffffffffffffffffffffffffffffffffffffff1673ffffffffffffffffffffffffffffffffffffffff168152602001908152602001600020600082825461139b9190612177565b925050819055506113ed565b6000600360008473ffffffffffffffffffffffffffffffffffffffff1673ffffffffffffffffffffffffffffffffffffffff168152602001908152602001600020819055505b6000600360008473ffffffffffffffffffffffffffffffffffffffff1673ffffffffffffffffffffffffffffffffffffffff168152602001908152602001600020549050808261143d9190612177565b600160008781526020019081526020016000206001016000828254611462919061209e565b925050819055506000600160008781526020019081526020016000206008018190555060006001600087815260200190815260200160002060070160006101000a81548173ffffffffffffffffffffffffffffffffffffffff021916908373ffffffffffffffffffffffffffffffffffffffff1602179055505050505050565b60005b600280549050811015611735576000600160006002848154811061150c5761150b612040565b5b90600052602060002001548152602001908152602001600020604051806101200160405290816000820160009054906101000a900460ff1615151515815260200160018201548152602001600282015481526020016003820160009054906101000a900473ffffffffffffffffffffffffffffffffffffffff1673ffffffffffffffffffffffffffffffffffffffff1673ffffffffffffffffffffffffffffffffffffffff168152602001600482016040518060400160405290816000820154815260200160018201548152505081526020016006820180546115ee90611d91565b80601f016020809104026020016040519081016040528092919081815260200182805461161a90611d91565b80156116675780601f1061163c57610100808354040283529160200191611667565b820191906000526020600020905b81548152906001019060200180831161164a57829003601f168201915b505050505081526020016007820160009054906101000a900473ffffffffffffffffffffffffffffffffffffffff1673ffffffffffffffffffffffffffffffffffffffff1673ffffffffffffffffffffffffffffffffffffffff1681526020016008820154815260200160098201548152505090508273ffffffffffffffffffffffffffffffffffffffff168160c0015173ffffffffffffffffffffffffffffffffffffffff1603611721576117208160400151611279565b5b50808061172d906120d2565b9150506114e5565b5050565b6000604051905090565b600080fd5b600080fd5b600073ffffffffffffffffffffffffffffffffffffffff82169050919050565b60006117788261174d565b9050919050565b6117888161176d565b811461179357600080fd5b50565b6000813590506117a58161177f565b92915050565b6000602082840312156117c1576117c0611743565b5b60006117cf84828501611796565b91505092915050565b600081519050919050565b600082825260208201905092915050565b60005b838110156118125780820151818401526020810190506117f7565b60008484015250505050565b6000601f19601f8301169050919050565b600061183a826117d8565b61184481856117e3565b93506118548185602086016117f4565b61185d8161181e565b840191505092915050565b60006020820190508181036000830152611882818461182f565b905092915050565b600080fd5b600080fd5b7f4e487b7100000000000000000000000000000000000000000000000000000000600052604160045260246000fd5b6118cc8261181e565b810181811067ffffffffffffffff821117156118eb576118ea611894565b5b80604052505050565b60006118fe611739565b905061190a82826118c3565b919050565b600067ffffffffffffffff82111561192a57611929611894565b5b6119338261181e565b9050602081019050919050565b82818337600083830152505050565b600061196261195d8461190f565b6118f4565b90508281526020810184848401111561197e5761197d61188f565b5b611989848285611940565b509392505050565b600082601f8301126119a6576119a561188a565b5b81356119b684826020860161194f565b91505092915050565b6000819050919050565b6119d2816119bf565b81146119dd57600080fd5b50565b6000813590506119ef816119c9565b92915050565b600080600060608486031215611a0e57611a0d611743565b5b600084013567ffffffffffffffff811115611a2c57611a2b611748565b5b611a3886828701611991565b9350506020611a49868287016119e0565b9250506040611a5a868287016119e0565b9150509250925092565b611a6d816119bf565b82525050565b6000602082019050611a886000830184611a64565b92915050565b60008060408385031215611aa557611aa4611743565b5b6000611ab3858286016119e0565b9250506020611ac4858286016119e0565b9150509250929050565b600060208284031215611ae457611ae3611743565b5b6000611af2848285016119e0565b91505092915050565b60008115159050919050565b611b1081611afb565b82525050565b611b1f8161176d565b82525050565b611b2e816119bf565b82525050565b604082016000820151611b4a6000850182611b25565b506020820151611b5d6020850182611b25565b50505050565b600061014082019050611b79600083018c611b07565b611b86602083018b611a64565b611b93604083018a611a64565b611ba06060830189611b16565b611bad6080830188611b34565b81810360c0830152611bbf818761182f565b9050611bce60e0830186611b16565b611bdc610100830185611a64565b611bea610120830184611a64565b9a9950505050505050505050565b7f42696c6c626f61726420646f6573206e6f742065786973740000000000000000600082015250565b6000611c2e6018836117e3565b9150611c3982611bf8565b602082019050919050565b60006020820190508181036000830152611c5d81611c21565b9050919050565b7f4e657720636f73742070657220626c6f636b2068617320746f2062652068696760008201527f686572207468616e2070726576696f757320636f73742070657220626c6f636b602082015250565b6000611cc06040836117e3565b9150611ccb82611c64565b604082019050919050565b60006020820190508181036000830152611cef81611cb3565b9050919050565b7f4e6f7420656e6f756768207374616b652070726f766964656400000000000000600082015250565b6000611d2c6019836117e3565b9150611d3782611cf6565b602082019050919050565b60006020820190508181036000830152611d5b81611d1f565b9050919050565b7f4e487b7100000000000000000000000000000000000000000000000000000000600052602260045260246000fd5b60006002820490506001821680611da957607f821691505b602082108103611dbc57611dbb611d62565b5b50919050565b60008190508160005260206000209050919050565b60006020601f8301049050919050565b600082821b905092915050565b600060088302611e247fffffffffffffffffffffffffffffffffffffffffffffffffffffffffffffffff82611de7565b611e2e8683611de7565b95508019841693508086168417925050509392505050565b6000819050919050565b6000611e6b611e66611e61846119bf565b611e46565b6119bf565b9050919050565b6000819050919050565b611e8583611e50565b611e99611e9182611e72565b848454611df4565b825550505050565b600090565b611eae611ea1565b611eb9818484611e7c565b505050565b5b81811015611edd57611ed2600082611ea6565b600181019050611ebf565b5050565b601f821115611f2257611ef381611dc2565b611efc84611dd7565b81016020851015611f0b578190505b611f1f611f1785611dd7565b830182611ebe565b50505b505050565b600082821c905092915050565b6000611f4560001984600802611f27565b1980831691505092915050565b6000611f5e8383611f34565b9150826002028217905092915050565b611f77826117d8565b67ffffffffffffffff811115611f9057611f8f611894565b5b611f9a8254611d91565b611fa5828285611ee1565b600060209050601f831160018114611fd85760008415611fc6578287015190505b611fd08582611f52565b865550612038565b601f198416611fe686611dc2565b60005b8281101561200e57848901518255600182019150602085019450602081019050611fe9565b8683101561202b5784890151612027601f891682611f34565b8355505b6001600288020188555050505b505050505050565b7f4e487b7100000000000000000000000000000000000000000000000000000000600052603260045260246000fd5b7f4e487b7100000000000000000000000000000000000000000000000000000000600052601160045260246000fd5b60006120a9826119bf565b91506120b4836119bf565b92508282019050808211156120cc576120cb61206f565b5b92915050565b60006120dd826119bf565b91507fffffffffffffffffffffffffffffffffffffffffffffffffffffffffffffffff820361210f5761210e61206f565b5b600182019050919050565b600060208201905061212f6000830184611b16565b92915050565b600081519050612144816119c9565b92915050565b6000602082840312156121605761215f611743565b5b600061216e84828501612135565b91505092915050565b6000612182826119bf565b915061218d836119bf565b92508282039050818111156121a5576121a461206f565b5b92915050565b60006121b6826119bf565b91506121c1836119bf565b92508282026121cf816119bf565b915082820484148315176121e6576121e561206f565b5b5092915050565b7f52656e74657220686173206e6f207374616b6500000000000000000000000000600082015250565b60006122236013836117e3565b915061222e826121ed565b602082019050919050565b6000602082019050818103600083015261225281612216565b9050919050565b7f4e487b7100000000000000000000000000000000000000000000000000000000600052601260045260246000fd5b6000612293826119bf565b915061229e836119bf565b9250826122ae576122ad612259565b5b828204905092915050565b7f52656e746572207374696c6c2068617320656e6f756768207374616b6520746f60008201527f20636f76657220636f7374730000000000000000000000000000000000000000602082015250565b6000612315602c836117e3565b9150612320826122b9565b604082019050919050565b6000602082019050818103600083015261234481612308565b905091905056fe68747470733a2f2f7261772e67697468756275736572636f6e74656e742e636f6d2f6c6f72626b652f426c6f636b426f6172642f6d61696e2f6173736574732f64656661756c745f68617264776172652e676966a2646970667358221220bdbcab3e5457ddd996106f3e483e0c957de7fae15c63135a0c34b7368c571c2664736f6c63430008120033",
  "linkReferences": {},
  "deployedLinkReferences": {}
}