{
  "_format": "hh-sol-artifact-1",
  "contractName": "BlockBoard",
  "sourceName": "contracts/BlockBoard.sol",
  "abi": [
    {
      "inputs": [],
      "stateMutability": "nonpayable",
      "type": "constructor"
    },
    {
      "inputs": [
        {
          "internalType": "address",
          "name": "billboard_addr",
          "type": "address"
        }
      ],
      "name": "getRentForBillboard",
      "outputs": [
        {
          "internalType": "uint256",
          "name": "accumulated",
          "type": "uint256"
        }
      ],
      "stateMutability": "view",
      "type": "function"
    },
    {
      "inputs": [
        {
          "internalType": "address",
          "name": "renter_addr",
          "type": "address"
        }
      ],
      "name": "getRenterAccumulated",
      "outputs": [
        {
          "internalType": "uint256",
          "name": "accumulated",
          "type": "uint256"
        }
      ],
      "stateMutability": "view",
      "type": "function"
    },
    {
      "inputs": [
        {
          "internalType": "address",
          "name": "renter_addr",
          "type": "address"
        }
      ],
      "name": "killRenter",
      "outputs": [],
      "stateMutability": "nonpayable",
      "type": "function"
    },
    {
      "inputs": [
        {
          "internalType": "uint256",
          "name": "geo_lat",
          "type": "uint256"
        },
        {
          "internalType": "uint256",
          "name": "geo_y",
          "type": "uint256"
        }
      ],
      "name": "registerBillboard",
      "outputs": [],
      "stateMutability": "nonpayable",
      "type": "function"
    },
    {
      "inputs": [
        {
          "internalType": "string",
          "name": "ad_url",
          "type": "string"
        },
        {
          "internalType": "address",
          "name": "billboard_addr",
          "type": "address"
        },
        {
          "internalType": "uint256",
          "name": "cost_per_block",
          "type": "uint256"
        }
      ],
      "name": "rentBillboard",
      "outputs": [],
      "stateMutability": "payable",
      "type": "function"
    },
    {
      "inputs": [],
      "name": "unstakeRent",
      "outputs": [],
      "stateMutability": "nonpayable",
      "type": "function"
    }
  ],
  "bytecode": "0x608060405234801561001057600080fd5b50611b9b806100206000396000f3fe6080604052600436106100555760003560e01c806313293d3a1461005a5780634d90dff514610097578063ad3f2a22146100c0578063cd3878e9146100fd578063d560deb014610114578063f8628bf31461013d575b600080fd5b34801561006657600080fd5b50610081600480360381019061007c9190611165565b610159565b60405161008e91906111ab565b60405180910390f35b3480156100a357600080fd5b506100be60048036038101906100b991906111f2565b61025b565b005b3480156100cc57600080fd5b506100e760048036038101906100e29190611165565b6105f2565b6040516100f491906111ab565b60405180910390f35b34801561010957600080fd5b5061011261076f565b005b34801561012057600080fd5b5061013b60048036038101906101369190611165565b6108c7565b005b61015760048036038101906101529190611378565b610b06565b005b600080600090505b600180549050811015610255578273ffffffffffffffffffffffffffffffffffffffff1660018281548110610199576101986113e7565b5b906000526020600020906008020160050160009054906101000a900473ffffffffffffffffffffffffffffffffffffffff1673ffffffffffffffffffffffffffffffffffffffff160361024257610234600182815481106101fd576101fc6113e7565b5b906000526020600020906008020160010160009054906101000a900473ffffffffffffffffffffffffffffffffffffffff166105f2565b8261023f9190611445565b91505b808061024d90611479565b915050610161565b50919050565b600073ffffffffffffffffffffffffffffffffffffffff166000803373ffffffffffffffffffffffffffffffffffffffff1673ffffffffffffffffffffffffffffffffffffffff16815260200190815260200160002060010160009054906101000a900473ffffffffffffffffffffffffffffffffffffffff1673ffffffffffffffffffffffffffffffffffffffff161461032b576040517f08c379a00000000000000000000000000000000000000000000000000000000081526004016103229061151e565b60405180910390fd5b6000604051806040016040528084815260200183815250905060006040518060e00160405280600081526020013373ffffffffffffffffffffffffffffffffffffffff168152602001838152602001604051806020016040528060008152508152602001600073ffffffffffffffffffffffffffffffffffffffff1681526020016000815260200160008152509050806000803373ffffffffffffffffffffffffffffffffffffffff1673ffffffffffffffffffffffffffffffffffffffff1681526020019081526020016000206000820151816000015560208201518160010160006101000a81548173ffffffffffffffffffffffffffffffffffffffff021916908373ffffffffffffffffffffffffffffffffffffffff16021790555060408201518160020160008201518160000155602082015181600101555050606082015181600401908161047e9190611755565b5060808201518160050160006101000a81548173ffffffffffffffffffffffffffffffffffffffff021916908373ffffffffffffffffffffffffffffffffffffffff16021790555060a0820151816006015560c0820151816007015590505060018190806001815401808255809150506001900390600052602060002090600802016000909190919091506000820151816000015560208201518160010160006101000a81548173ffffffffffffffffffffffffffffffffffffffff021916908373ffffffffffffffffffffffffffffffffffffffff16021790555060408201518160020160008201518160000155602082015181600101555050606082015181600401908161058e9190611755565b5060808201518160050160006101000a81548173ffffffffffffffffffffffffffffffffffffffff021916908373ffffffffffffffffffffffffffffffffffffffff16021790555060a0820151816006015560c08201518160070155505050505050565b60008073ffffffffffffffffffffffffffffffffffffffff166000808473ffffffffffffffffffffffffffffffffffffffff1673ffffffffffffffffffffffffffffffffffffffff16815260200190815260200160002060010160009054906101000a900473ffffffffffffffffffffffffffffffffffffffff1673ffffffffffffffffffffffffffffffffffffffff16036106c3576040517f08c379a00000000000000000000000000000000000000000000000000000000081526004016106ba90611873565b60405180910390fd5b60008060008473ffffffffffffffffffffffffffffffffffffffff1673ffffffffffffffffffffffffffffffffffffffff16815260200190815260200160002060070154905060008060008573ffffffffffffffffffffffffffffffffffffffff1673ffffffffffffffffffffffffffffffffffffffff16815260200190815260200160002060060154905080824361075c9190611893565b61076691906118c7565b92505050919050565b6000600260003373ffffffffffffffffffffffffffffffffffffffff1673ffffffffffffffffffffffffffffffffffffffff16815260200190815260200160002054116107f1576040517f08c379a00000000000000000000000000000000000000000000000000000000081526004016107e890611955565b60405180910390fd5b6107fa33610e4a565b3373ffffffffffffffffffffffffffffffffffffffff166108fc600260003373ffffffffffffffffffffffffffffffffffffffff1673ffffffffffffffffffffffffffffffffffffffff168152602001908152602001600020549081150290604051600060405180830381858888f1935050505015801561087f573d6000803e3d6000fd5b506000600260003373ffffffffffffffffffffffffffffffffffffffff1673ffffffffffffffffffffffffffffffffffffffff16815260200190815260200160002081905550565b6000600260008373ffffffffffffffffffffffffffffffffffffffff1673ffffffffffffffffffffffffffffffffffffffff1681526020019081526020016000205411610949576040517f08c379a000000000000000000000000000000000000000000000000000000000815260040161094090611955565b60405180910390fd5b600061095482610159565b905060006064600261096691906119a4565b8261097191906118c7565b9050808261097f9190611445565b600260008573ffffffffffffffffffffffffffffffffffffffff1673ffffffffffffffffffffffffffffffffffffffff168152602001908152602001600020541115610a00576040517f08c379a00000000000000000000000000000000000000000000000000000000081526004016109f790611a47565b60405180910390fd5b81600260008573ffffffffffffffffffffffffffffffffffffffff1673ffffffffffffffffffffffffffffffffffffffff16815260200190815260200160002054610a4b9190611893565b90506000811015610a5b57600090505b80600260008573ffffffffffffffffffffffffffffffffffffffff1673ffffffffffffffffffffffffffffffffffffffff1681526020019081526020016000206000828254610aaa9190611893565b925050819055503373ffffffffffffffffffffffffffffffffffffffff166108fc829081150290604051600060405180830381858888f19350505050158015610af7573d6000803e3d6000fd5b50610b0183610e4a565b505050565b600073ffffffffffffffffffffffffffffffffffffffff166000808473ffffffffffffffffffffffffffffffffffffffff1673ffffffffffffffffffffffffffffffffffffffff16815260200190815260200160002060010160009054906101000a900473ffffffffffffffffffffffffffffffffffffffff1673ffffffffffffffffffffffffffffffffffffffff1603610bd6576040517f08c379a0000000000000000000000000000000000000000000000000000000008152600401610bcd90611873565b60405180910390fd5b806000808473ffffffffffffffffffffffffffffffffffffffff1673ffffffffffffffffffffffffffffffffffffffff168152602001908152602001600020600601541115610c5a576040517f08c379a0000000000000000000000000000000000000000000000000000000008152600401610c5190611ad9565b60405180910390fd5b80341015610c9d576040517f08c379a0000000000000000000000000000000000000000000000000000000008152600401610c9490611b45565b60405180910390fd5b610ca682610f38565b34600260003373ffffffffffffffffffffffffffffffffffffffff1673ffffffffffffffffffffffffffffffffffffffff16815260200190815260200160002081905550336000808473ffffffffffffffffffffffffffffffffffffffff1673ffffffffffffffffffffffffffffffffffffffff16815260200190815260200160002060050160006101000a81548173ffffffffffffffffffffffffffffffffffffffff021916908373ffffffffffffffffffffffffffffffffffffffff160217905550806000808473ffffffffffffffffffffffffffffffffffffffff1673ffffffffffffffffffffffffffffffffffffffff16815260200190815260200160002060060181905550436000808473ffffffffffffffffffffffffffffffffffffffff1673ffffffffffffffffffffffffffffffffffffffff16815260200190815260200160002060070181905550826000808473ffffffffffffffffffffffffffffffffffffffff1673ffffffffffffffffffffffffffffffffffffffff1681526020019081526020016000206004019081610e449190611755565b50505050565b60005b600180549050811015610f34578173ffffffffffffffffffffffffffffffffffffffff1660018281548110610e8557610e846113e7565b5b906000526020600020906008020160050160009054906101000a900473ffffffffffffffffffffffffffffffffffffffff1673ffffffffffffffffffffffffffffffffffffffff1603610f2157610f2060018281548110610ee957610ee86113e7565b5b906000526020600020906008020160010160009054906101000a900473ffffffffffffffffffffffffffffffffffffffff16610f38565b5b8080610f2c90611479565b915050610e4d565b5050565b6000610f43826105f2565b905060008060008473ffffffffffffffffffffffffffffffffffffffff1673ffffffffffffffffffffffffffffffffffffffff16815260200190815260200160002060050160009054906101000a900473ffffffffffffffffffffffffffffffffffffffff1690506000600260008373ffffffffffffffffffffffffffffffffffffffff1673ffffffffffffffffffffffffffffffffffffffff16815260200190815260200160002054905082600260008473ffffffffffffffffffffffffffffffffffffffff1673ffffffffffffffffffffffffffffffffffffffff168152602001908152602001600020600082825461103e9190611893565b925050819055506000600260008473ffffffffffffffffffffffffffffffffffffffff1673ffffffffffffffffffffffffffffffffffffffff16815260200190815260200160002054905080826110959190611893565b6000808773ffffffffffffffffffffffffffffffffffffffff1673ffffffffffffffffffffffffffffffffffffffff16815260200190815260200160002060000160008282546110e59190611445565b925050819055505050505050565b6000604051905090565b600080fd5b600080fd5b600073ffffffffffffffffffffffffffffffffffffffff82169050919050565b600061113282611107565b9050919050565b61114281611127565b811461114d57600080fd5b50565b60008135905061115f81611139565b92915050565b60006020828403121561117b5761117a6110fd565b5b600061118984828501611150565b91505092915050565b6000819050919050565b6111a581611192565b82525050565b60006020820190506111c0600083018461119c565b92915050565b6111cf81611192565b81146111da57600080fd5b50565b6000813590506111ec816111c6565b92915050565b60008060408385031215611209576112086110fd565b5b6000611217858286016111dd565b9250506020611228858286016111dd565b9150509250929050565b600080fd5b600080fd5b6000601f19601f8301169050919050565b7f4e487b7100000000000000000000000000000000000000000000000000000000600052604160045260246000fd5b6112858261123c565b810181811067ffffffffffffffff821117156112a4576112a361124d565b5b80604052505050565b60006112b76110f3565b90506112c3828261127c565b919050565b600067ffffffffffffffff8211156112e3576112e261124d565b5b6112ec8261123c565b9050602081019050919050565b82818337600083830152505050565b600061131b611316846112c8565b6112ad565b90508281526020810184848401111561133757611336611237565b5b6113428482856112f9565b509392505050565b600082601f83011261135f5761135e611232565b5b813561136f848260208601611308565b91505092915050565b600080600060608486031215611391576113906110fd565b5b600084013567ffffffffffffffff8111156113af576113ae611102565b5b6113bb8682870161134a565b93505060206113cc86828701611150565b92505060406113dd868287016111dd565b9150509250925092565b7f4e487b7100000000000000000000000000000000000000000000000000000000600052603260045260246000fd5b7f4e487b7100000000000000000000000000000000000000000000000000000000600052601160045260246000fd5b600061145082611192565b915061145b83611192565b925082820190508082111561147357611472611416565b5b92915050565b600061148482611192565b91507fffffffffffffffffffffffffffffffffffffffffffffffffffffffffffffffff82036114b6576114b5611416565b5b600182019050919050565b600082825260208201905092915050565b7f42696c6c626f61726420616c7265616479206578697374730000000000000000600082015250565b60006115086018836114c1565b9150611513826114d2565b602082019050919050565b60006020820190508181036000830152611537816114fb565b9050919050565b600081519050919050565b7f4e487b7100000000000000000000000000000000000000000000000000000000600052602260045260246000fd5b6000600282049050600182168061159057607f821691505b6020821081036115a3576115a2611549565b5b50919050565b60008190508160005260206000209050919050565b60006020601f8301049050919050565b600082821b905092915050565b60006008830261160b7fffffffffffffffffffffffffffffffffffffffffffffffffffffffffffffffff826115ce565b61161586836115ce565b95508019841693508086168417925050509392505050565b6000819050919050565b600061165261164d61164884611192565b61162d565b611192565b9050919050565b6000819050919050565b61166c83611637565b61168061167882611659565b8484546115db565b825550505050565b600090565b611695611688565b6116a0818484611663565b505050565b5b818110156116c4576116b960008261168d565b6001810190506116a6565b5050565b601f821115611709576116da816115a9565b6116e3846115be565b810160208510156116f2578190505b6117066116fe856115be565b8301826116a5565b50505b505050565b600082821c905092915050565b600061172c6000198460080261170e565b1980831691505092915050565b6000611745838361171b565b9150826002028217905092915050565b61175e8261153e565b67ffffffffffffffff8111156117775761177661124d565b5b6117818254611578565b61178c8282856116c8565b600060209050601f8311600181146117bf57600084156117ad578287015190505b6117b78582611739565b86555061181f565b601f1984166117cd866115a9565b60005b828110156117f5578489015182556001820191506020850194506020810190506117d0565b86831015611812578489015161180e601f89168261171b565b8355505b6001600288020188555050505b505050505050565b7f42696c6c626f61726420646f6573206e6f742065786973740000000000000000600082015250565b600061185d6018836114c1565b915061186882611827565b602082019050919050565b6000602082019050818103600083015261188c81611850565b9050919050565b600061189e82611192565b91506118a983611192565b92508282039050818111156118c1576118c0611416565b5b92915050565b60006118d282611192565b91506118dd83611192565b92508282026118eb81611192565b9150828204841483151761190257611901611416565b5b5092915050565b7f52656e74657220686173206e6f207374616b6500000000000000000000000000600082015250565b600061193f6013836114c1565b915061194a82611909565b602082019050919050565b6000602082019050818103600083015261196e81611932565b9050919050565b7f4e487b7100000000000000000000000000000000000000000000000000000000600052601260045260246000fd5b60006119af82611192565b91506119ba83611192565b9250826119ca576119c9611975565b5b828204905092915050565b7f52656e746572207374696c6c2068617320656e6f756768207374616b6520746f60008201527f20636f76657220636f7374730000000000000000000000000000000000000000602082015250565b6000611a31602c836114c1565b9150611a3c826119d5565b604082019050919050565b60006020820190508181036000830152611a6081611a24565b9050919050565b7f4e657720636f73742070657220626c6f636b2068617320746f2062652068696760008201527f686572207468616e2070726576696f757320636f73742070657220626c6f636b602082015250565b6000611ac36040836114c1565b9150611ace82611a67565b604082019050919050565b60006020820190508181036000830152611af281611ab6565b9050919050565b7f4e6f7420656e6f756768207374616b652070726f766964656400000000000000600082015250565b6000611b2f6019836114c1565b9150611b3a82611af9565b602082019050919050565b60006020820190508181036000830152611b5e81611b22565b905091905056fea26469706673582212205296f4aa241758905b0730819052511ab31f4b8054cb7f0c211af90f639d8e1d64736f6c63430008120033",
  "linkReferences": {},
  "deployedLinkReferences": {}
}