{
  "_format": "hh-sol-artifact-1",
  "contractName": "BlockBoard",
  "sourceName": "contracts/BlockBoard.sol",
  "abi": [
    {
      "inputs": [
        {
          "internalType": "address",
          "name": "nft_contract_addr",
          "type": "address"
        }
      ],
      "stateMutability": "nonpayable",
      "type": "constructor"
    },
    {
      "inputs": [],
      "name": "BOUNTY_PERCENTAGE",
      "outputs": [
        {
          "internalType": "uint256",
          "name": "",
          "type": "uint256"
        }
      ],
      "stateMutability": "view",
      "type": "function"
    },
    {
      "inputs": [
        {
          "internalType": "uint256",
          "name": "",
          "type": "uint256"
        }
      ],
      "name": "billboard_token_list",
      "outputs": [
        {
          "internalType": "uint256",
          "name": "",
          "type": "uint256"
        }
      ],
      "stateMutability": "view",
      "type": "function"
    },
    {
      "inputs": [],
      "name": "billboard_token_list_length",
      "outputs": [
        {
          "internalType": "uint256",
          "name": "",
          "type": "uint256"
        }
      ],
      "stateMutability": "view",
      "type": "function"
    },
    {
      "inputs": [
        {
          "internalType": "uint256",
          "name": "",
          "type": "uint256"
        }
      ],
      "name": "billboards_map",
      "outputs": [
        {
          "internalType": "bool",
          "name": "exists",
          "type": "bool"
        },
        {
          "internalType": "uint256",
          "name": "earnings",
          "type": "uint256"
        },
        {
          "internalType": "uint256",
          "name": "token_id",
          "type": "uint256"
        },
        {
          "internalType": "address",
          "name": "owner",
          "type": "address"
        },
        {
          "components": [
            {
              "internalType": "uint256",
              "name": "lat",
              "type": "uint256"
            },
            {
              "internalType": "uint256",
              "name": "long",
              "type": "uint256"
            }
          ],
          "internalType": "struct BlockBoard.GeoPoint",
          "name": "location",
          "type": "tuple"
        },
        {
          "internalType": "string",
          "name": "ad_url",
          "type": "string"
        },
        {
          "internalType": "address",
          "name": "renter",
          "type": "address"
        },
        {
          "internalType": "uint256",
          "name": "cost_per_block",
          "type": "uint256"
        },
        {
          "internalType": "uint256",
          "name": "block_of_rent",
          "type": "uint256"
        }
      ],
      "stateMutability": "view",
      "type": "function"
    },
    {
      "inputs": [
        {
          "internalType": "uint256",
          "name": "billboard_id",
          "type": "uint256"
        }
      ],
      "name": "getAd",
      "outputs": [
        {
          "internalType": "string",
          "name": "ad_url",
          "type": "string"
        }
      ],
      "stateMutability": "view",
      "type": "function"
    },
    {
      "inputs": [
        {
          "internalType": "uint256",
          "name": "billboard_token_id",
          "type": "uint256"
        }
      ],
      "name": "getRentForBillboard",
      "outputs": [
        {
          "internalType": "uint256",
          "name": "accumulated",
          "type": "uint256"
        }
      ],
      "stateMutability": "view",
      "type": "function"
    },
    {
      "inputs": [
        {
          "internalType": "address",
          "name": "renter_addr",
          "type": "address"
        }
      ],
      "name": "getRenterAccumulatedTotal",
      "outputs": [
        {
          "internalType": "uint256",
          "name": "accumulated",
          "type": "uint256"
        }
      ],
      "stateMutability": "view",
      "type": "function"
    },
    {
      "inputs": [
        {
          "internalType": "address",
          "name": "renter_addr",
          "type": "address"
        }
      ],
      "name": "getRenterAccumulatingPerBlock",
      "outputs": [
        {
          "internalType": "uint256",
          "name": "accumulating_per_block",
          "type": "uint256"
        }
      ],
      "stateMutability": "view",
      "type": "function"
    },
    {
      "inputs": [
        {
          "internalType": "address",
          "name": "renter_addr",
          "type": "address"
        }
      ],
      "name": "killRenter",
      "outputs": [],
      "stateMutability": "nonpayable",
      "type": "function"
    },
    {
      "inputs": [
        {
          "internalType": "uint256",
          "name": "geo_lat",
          "type": "uint256"
        },
        {
          "internalType": "uint256",
          "name": "geo_y",
          "type": "uint256"
        }
      ],
      "name": "registerBillboard",
      "outputs": [],
      "stateMutability": "nonpayable",
      "type": "function"
    },
    {
      "inputs": [
        {
          "internalType": "string",
          "name": "ad_url",
          "type": "string"
        },
        {
          "internalType": "uint256",
          "name": "billboard_token_id",
          "type": "uint256"
        },
        {
          "internalType": "uint256",
          "name": "cost_per_block",
          "type": "uint256"
        }
      ],
      "name": "rentBillboard",
      "outputs": [],
      "stateMutability": "payable",
      "type": "function"
    },
    {
      "inputs": [
        {
          "internalType": "address",
          "name": "",
          "type": "address"
        }
      ],
      "name": "renter_stakes",
      "outputs": [
        {
          "internalType": "uint256",
          "name": "",
          "type": "uint256"
        }
      ],
      "stateMutability": "view",
      "type": "function"
    },
    {
      "inputs": [],
      "name": "unstakeRent",
      "outputs": [],
      "stateMutability": "nonpayable",
      "type": "function"
    }
  ],
  "bytecode": "0x60806040523480156200001157600080fd5b50604051620025e0380380620025e08339818101604052810190620000379190620000e8565b806000806101000a81548173ffffffffffffffffffffffffffffffffffffffff021916908373ffffffffffffffffffffffffffffffffffffffff160217905550506200011a565b600080fd5b600073ffffffffffffffffffffffffffffffffffffffff82169050919050565b6000620000b08262000083565b9050919050565b620000c281620000a3565b8114620000ce57600080fd5b50565b600081519050620000e281620000b7565b92915050565b6000602082840312156200010157620001006200007e565b5b60006200011184828501620000d1565b91505092915050565b6124b6806200012a6000396000f3fe6080604052600436106100c25760003560e01c80637cacc1791161007f57806394b76e0e1161005957806394b76e0e146102a5578063cd3878e9146102ea578063d560deb014610301578063dda2e49a1461032a576100c2565b80637cacc179146101ee5780637ede1c071461022b57806385c3979014610268576100c2565b80630b8005fe146100c757806320caf786146100e35780632343d84c1461010e57806337a440811461014b5780634d90dff5146101885780634f8837e1146101b1575b600080fd5b6100e160048036038101906100dc91906119fe565b610355565b005b3480156100ef57600080fd5b506100f861055c565b6040516101059190611a7c565b60405180910390f35b34801561011a57600080fd5b5061013560048036038101906101309190611af5565b610561565b6040516101429190611a7c565b60405180910390f35b34801561015757600080fd5b50610172600480360381019061016d9190611af5565b6107c8565b60405161017f9190611a7c565b60405180910390f35b34801561019457600080fd5b506101af60048036038101906101aa9190611b22565b610a27565b005b3480156101bd57600080fd5b506101d860048036038101906101d39190611b62565b610cd2565b6040516101e59190611a7c565b60405180910390f35b3480156101fa57600080fd5b5061021560048036038101906102109190611b62565b610cf6565b6040516102229190611a7c565b60405180910390f35b34801561023757600080fd5b50610252600480360381019061024d9190611b62565b610db8565b60405161025f9190611c0e565b60405180910390f35b34801561027457600080fd5b5061028f600480360381019061028a9190611af5565b610e60565b60405161029c9190611a7c565b60405180910390f35b3480156102b157600080fd5b506102cc60048036038101906102c79190611b62565b610e78565b6040516102e199989796959493929190611c98565b60405180910390f35b3480156102f657600080fd5b506102ff610fb9565b005b34801561030d57600080fd5b5061032860048036038101906103239190611af5565b611111565b005b34801561033657600080fd5b5061033f611359565b60405161034c9190611a7c565b60405180910390f35b600115156001600084815260200190815260200160002060000160009054906101000a900460ff161515146103bf576040517f08c379a00000000000000000000000000000000000000000000000000000000081526004016103b690611d79565b60405180910390fd5b8060016000848152602001908152602001600020600801541115610418576040517f08c379a000000000000000000000000000000000000000000000000000000000815260040161040f90611e0b565b60405180910390fd5b8034101561045b576040517f08c379a000000000000000000000000000000000000000000000000000000000815260040161045290611e77565b60405180910390fd5b6104648261135f565b34600460003373ffffffffffffffffffffffffffffffffffffffff1673ffffffffffffffffffffffffffffffffffffffff16815260200190815260200160002081905550336001600084815260200190815260200160002060070160006101000a81548173ffffffffffffffffffffffffffffffffffffffff021916908373ffffffffffffffffffffffffffffffffffffffff1602179055508060016000848152602001908152602001600020600801819055504360016000848152602001908152602001600020600901819055508260016000848152602001908152602001600020600601908161055691906120a3565b50505050565b600281565b6000805b6002805490508110156107c2576000600160006002848154811061058c5761058b612175565b5b90600052602060002001548152602001908152602001600020604051806101200160405290816000820160009054906101000a900460ff1615151515815260200160018201548152602001600282015481526020016003820160009054906101000a900473ffffffffffffffffffffffffffffffffffffffff1673ffffffffffffffffffffffffffffffffffffffff1673ffffffffffffffffffffffffffffffffffffffff1681526020016004820160405180604001604052908160008201548152602001600182015481525050815260200160068201805461066e90611ec6565b80601f016020809104026020016040519081016040528092919081815260200182805461069a90611ec6565b80156106e75780601f106106bc576101008083540402835291602001916106e7565b820191906000526020600020905b8154815290600101906020018083116106ca57829003601f168201915b505050505081526020016007820160009054906101000a900473ffffffffffffffffffffffffffffffffffffffff1673ffffffffffffffffffffffffffffffffffffffff1673ffffffffffffffffffffffffffffffffffffffff1681526020016008820154815260200160098201548152505090508373ffffffffffffffffffffffffffffffffffffffff168160c0015173ffffffffffffffffffffffffffffffffffffffff16036107ae576107a08160400151610cf6565b836107ab91906121d3565b92505b5080806107ba90612207565b915050610565565b50919050565b6000805b600280549050811015610a2157600060016000600284815481106107f3576107f2612175565b5b90600052602060002001548152602001908152602001600020604051806101200160405290816000820160009054906101000a900460ff1615151515815260200160018201548152602001600282015481526020016003820160009054906101000a900473ffffffffffffffffffffffffffffffffffffffff1673ffffffffffffffffffffffffffffffffffffffff1673ffffffffffffffffffffffffffffffffffffffff168152602001600482016040518060400160405290816000820154815260200160018201548152505081526020016006820180546108d590611ec6565b80601f016020809104026020016040519081016040528092919081815260200182805461090190611ec6565b801561094e5780601f106109235761010080835404028352916020019161094e565b820191906000526020600020905b81548152906001019060200180831161093157829003601f168201915b505050505081526020016007820160009054906101000a900473ffffffffffffffffffffffffffffffffffffffff1673ffffffffffffffffffffffffffffffffffffffff1673ffffffffffffffffffffffffffffffffffffffff1681526020016008820154815260200160098201548152505090508373ffffffffffffffffffffffffffffffffffffffff168160c0015173ffffffffffffffffffffffffffffffffffffffff1603610a0d578060e0015183610a0a91906121d3565b92505b508080610a1990612207565b9150506107cc565b50919050565b6000604051806040016040528084815260200183815250905060008060009054906101000a900473ffffffffffffffffffffffffffffffffffffffff1673ffffffffffffffffffffffffffffffffffffffff16636a627842336040518263ffffffff1660e01b8152600401610a9c919061224f565b6020604051808303816000875af1158015610abb573d6000803e3d6000fd5b505050506040513d601f19601f82011682018060405250810190610adf919061227f565b90506000604051806101200160405280600115158152602001600081526020018381526020013373ffffffffffffffffffffffffffffffffffffffff168152602001848152602001604051806020016040528060008152508152602001600073ffffffffffffffffffffffffffffffffffffffff1681526020016000815260200160008152509050600282908060018154018082558091505060019003906000526020600020016000909190919091505560036000815480929190610ba390612207565b9190505550806001600084815260200190815260200160002060008201518160000160006101000a81548160ff021916908315150217905550602082015181600101556040820151816002015560608201518160030160006101000a81548173ffffffffffffffffffffffffffffffffffffffff021916908373ffffffffffffffffffffffffffffffffffffffff1602179055506080820151816004016000820151816000015560208201518160010155505060a0820151816006019081610c6b91906120a3565b5060c08201518160070160006101000a81548173ffffffffffffffffffffffffffffffffffffffff021916908373ffffffffffffffffffffffffffffffffffffffff16021790555060e0820151816008015561010082015181600901559050505050505050565b60028181548110610ce257600080fd5b906000526020600020016000915090505481565b6000600115156001600084815260200190815260200160002060000160009054906101000a900460ff16151514610d62576040517f08c379a0000000000000000000000000000000000000000000000000000000008152600401610d5990611d79565b60405180910390fd5b600060016000848152602001908152602001600020600901549050600060016000858152602001908152602001600020600801549050808243610da591906122ac565b610daf91906122e0565b92505050919050565b6060600160008381526020019081526020016000206006018054610ddb90611ec6565b80601f0160208091040260200160405190810160405280929190818152602001828054610e0790611ec6565b8015610e545780601f10610e2957610100808354040283529160200191610e54565b820191906000526020600020905b815481529060010190602001808311610e3757829003601f168201915b50505050509050919050565b60046020528060005260406000206000915090505481565b60016020528060005260406000206000915090508060000160009054906101000a900460ff16908060010154908060020154908060030160009054906101000a900473ffffffffffffffffffffffffffffffffffffffff1690806004016040518060400160405290816000820154815260200160018201548152505090806006018054610f0490611ec6565b80601f0160208091040260200160405190810160405280929190818152602001828054610f3090611ec6565b8015610f7d5780601f10610f5257610100808354040283529160200191610f7d565b820191906000526020600020905b815481529060010190602001808311610f6057829003601f168201915b5050505050908060070160009054906101000a900473ffffffffffffffffffffffffffffffffffffffff16908060080154908060090154905089565b6000600460003373ffffffffffffffffffffffffffffffffffffffff1673ffffffffffffffffffffffffffffffffffffffff168152602001908152602001600020541161103b576040517f08c379a00000000000000000000000000000000000000000000000000000000081526004016110329061236e565b60405180910390fd5b61104433611617565b3373ffffffffffffffffffffffffffffffffffffffff166108fc600460003373ffffffffffffffffffffffffffffffffffffffff1673ffffffffffffffffffffffffffffffffffffffff168152602001908152602001600020549081150290604051600060405180830381858888f193505050501580156110c9573d6000803e3d6000fd5b506000600460003373ffffffffffffffffffffffffffffffffffffffff1673ffffffffffffffffffffffffffffffffffffffff16815260200190815260200160002081905550565b6000600460008373ffffffffffffffffffffffffffffffffffffffff1673ffffffffffffffffffffffffffffffffffffffff1681526020019081526020016000205411611193576040517f08c379a000000000000000000000000000000000000000000000000000000000815260040161118a9061236e565b60405180910390fd5b600061119e82610561565b905060006111ab836107c8565b9050600060646002600460008773ffffffffffffffffffffffffffffffffffffffff1673ffffffffffffffffffffffffffffffffffffffff168152602001908152602001600020546111fd91906122e0565b61120791906123bd565b90508060028361121791906122e0565b8461122291906121d3565b61122c91906121d3565b600460008673ffffffffffffffffffffffffffffffffffffffff1673ffffffffffffffffffffffffffffffffffffffff1681526020019081526020016000205411156112ad576040517f08c379a00000000000000000000000000000000000000000000000000000000081526004016112a490612460565b60405180910390fd5b80600460008673ffffffffffffffffffffffffffffffffffffffff1673ffffffffffffffffffffffffffffffffffffffff16815260200190815260200160002060008282546112fc91906122ac565b925050819055503373ffffffffffffffffffffffffffffffffffffffff166108fc829081150290604051600060405180830381858888f19350505050158015611349573d6000803e3d6000fd5b5061135384611617565b50505050565b60035481565b600061136a82610cf6565b905060006001600084815260200190815260200160002060070160009054906101000a900473ffffffffffffffffffffffffffffffffffffffff1690506000600460008373ffffffffffffffffffffffffffffffffffffffff1673ffffffffffffffffffffffffffffffffffffffff16815260200190815260200160002054905082600460008473ffffffffffffffffffffffffffffffffffffffff1673ffffffffffffffffffffffffffffffffffffffff16815260200190815260200160002054111561148d5782600460008473ffffffffffffffffffffffffffffffffffffffff1673ffffffffffffffffffffffffffffffffffffffff168152602001908152602001600020600082825461148191906122ac565b925050819055506114d3565b6000600460008473ffffffffffffffffffffffffffffffffffffffff1673ffffffffffffffffffffffffffffffffffffffff168152602001908152602001600020819055505b6000600460008473ffffffffffffffffffffffffffffffffffffffff1673ffffffffffffffffffffffffffffffffffffffff168152602001908152602001600020549050808261152391906122ac565b60016000878152602001908152602001600020600101600082825461154891906121d3565b925050819055506000600160008781526020019081526020016000206008018190555060006001600087815260200190815260200160002060070160006101000a81548173ffffffffffffffffffffffffffffffffffffffff021916908373ffffffffffffffffffffffffffffffffffffffff160217905550604051806020016040528060008152506001600087815260200190815260200160002060060190816115f391906120a3565b50600060016000878152602001908152602001600020600801819055505050505050565b60005b60028054905081101561186a576000600160006002848154811061164157611640612175565b5b90600052602060002001548152602001908152602001600020604051806101200160405290816000820160009054906101000a900460ff1615151515815260200160018201548152602001600282015481526020016003820160009054906101000a900473ffffffffffffffffffffffffffffffffffffffff1673ffffffffffffffffffffffffffffffffffffffff1673ffffffffffffffffffffffffffffffffffffffff1681526020016004820160405180604001604052908160008201548152602001600182015481525050815260200160068201805461172390611ec6565b80601f016020809104026020016040519081016040528092919081815260200182805461174f90611ec6565b801561179c5780601f106117715761010080835404028352916020019161179c565b820191906000526020600020905b81548152906001019060200180831161177f57829003601f168201915b505050505081526020016007820160009054906101000a900473ffffffffffffffffffffffffffffffffffffffff1673ffffffffffffffffffffffffffffffffffffffff1673ffffffffffffffffffffffffffffffffffffffff1681526020016008820154815260200160098201548152505090508273ffffffffffffffffffffffffffffffffffffffff168160c0015173ffffffffffffffffffffffffffffffffffffffff160361185657611855816040015161135f565b5b50808061186290612207565b91505061161a565b5050565b6000604051905090565b600080fd5b600080fd5b600080fd5b600080fd5b6000601f19601f8301169050919050565b7f4e487b7100000000000000000000000000000000000000000000000000000000600052604160045260246000fd5b6118d58261188c565b810181811067ffffffffffffffff821117156118f4576118f361189d565b5b80604052505050565b600061190761186e565b905061191382826118cc565b919050565b600067ffffffffffffffff8211156119335761193261189d565b5b61193c8261188c565b9050602081019050919050565b82818337600083830152505050565b600061196b61196684611918565b6118fd565b90508281526020810184848401111561198757611986611887565b5b611992848285611949565b509392505050565b600082601f8301126119af576119ae611882565b5b81356119bf848260208601611958565b91505092915050565b6000819050919050565b6119db816119c8565b81146119e657600080fd5b50565b6000813590506119f8816119d2565b92915050565b600080600060608486031215611a1757611a16611878565b5b600084013567ffffffffffffffff811115611a3557611a3461187d565b5b611a418682870161199a565b9350506020611a52868287016119e9565b9250506040611a63868287016119e9565b9150509250925092565b611a76816119c8565b82525050565b6000602082019050611a916000830184611a6d565b92915050565b600073ffffffffffffffffffffffffffffffffffffffff82169050919050565b6000611ac282611a97565b9050919050565b611ad281611ab7565b8114611add57600080fd5b50565b600081359050611aef81611ac9565b92915050565b600060208284031215611b0b57611b0a611878565b5b6000611b1984828501611ae0565b91505092915050565b60008060408385031215611b3957611b38611878565b5b6000611b47858286016119e9565b9250506020611b58858286016119e9565b9150509250929050565b600060208284031215611b7857611b77611878565b5b6000611b86848285016119e9565b91505092915050565b600081519050919050565b600082825260208201905092915050565b60005b83811015611bc9578082015181840152602081019050611bae565b60008484015250505050565b6000611be082611b8f565b611bea8185611b9a565b9350611bfa818560208601611bab565b611c038161188c565b840191505092915050565b60006020820190508181036000830152611c288184611bd5565b905092915050565b60008115159050919050565b611c4581611c30565b82525050565b611c5481611ab7565b82525050565b611c63816119c8565b82525050565b604082016000820151611c7f6000850182611c5a565b506020820151611c926020850182611c5a565b50505050565b600061014082019050611cae600083018c611c3c565b611cbb602083018b611a6d565b611cc8604083018a611a6d565b611cd56060830189611c4b565b611ce26080830188611c69565b81810360c0830152611cf48187611bd5565b9050611d0360e0830186611c4b565b611d11610100830185611a6d565b611d1f610120830184611a6d565b9a9950505050505050505050565b7f42696c6c626f61726420646f6573206e6f742065786973740000000000000000600082015250565b6000611d63601883611b9a565b9150611d6e82611d2d565b602082019050919050565b60006020820190508181036000830152611d9281611d56565b9050919050565b7f4e657720636f73742070657220626c6f636b2068617320746f2062652068696760008201527f686572207468616e2070726576696f757320636f73742070657220626c6f636b602082015250565b6000611df5604083611b9a565b9150611e0082611d99565b604082019050919050565b60006020820190508181036000830152611e2481611de8565b9050919050565b7f4e6f7420656e6f756768207374616b652070726f766964656400000000000000600082015250565b6000611e61601983611b9a565b9150611e6c82611e2b565b602082019050919050565b60006020820190508181036000830152611e9081611e54565b9050919050565b7f4e487b7100000000000000000000000000000000000000000000000000000000600052602260045260246000fd5b60006002820490506001821680611ede57607f821691505b602082108103611ef157611ef0611e97565b5b50919050565b60008190508160005260206000209050919050565b60006020601f8301049050919050565b600082821b905092915050565b600060088302611f597fffffffffffffffffffffffffffffffffffffffffffffffffffffffffffffffff82611f1c565b611f638683611f1c565b95508019841693508086168417925050509392505050565b6000819050919050565b6000611fa0611f9b611f96846119c8565b611f7b565b6119c8565b9050919050565b6000819050919050565b611fba83611f85565b611fce611fc682611fa7565b848454611f29565b825550505050565b600090565b611fe3611fd6565b611fee818484611fb1565b505050565b5b8181101561201257612007600082611fdb565b600181019050611ff4565b5050565b601f8211156120575761202881611ef7565b61203184611f0c565b81016020851015612040578190505b61205461204c85611f0c565b830182611ff3565b50505b505050565b600082821c905092915050565b600061207a6000198460080261205c565b1980831691505092915050565b60006120938383612069565b9150826002028217905092915050565b6120ac82611b8f565b67ffffffffffffffff8111156120c5576120c461189d565b5b6120cf8254611ec6565b6120da828285612016565b600060209050601f83116001811461210d57600084156120fb578287015190505b6121058582612087565b86555061216d565b601f19841661211b86611ef7565b60005b828110156121435784890151825560018201915060208501945060208101905061211e565b86831015612160578489015161215c601f891682612069565b8355505b6001600288020188555050505b505050505050565b7f4e487b7100000000000000000000000000000000000000000000000000000000600052603260045260246000fd5b7f4e487b7100000000000000000000000000000000000000000000000000000000600052601160045260246000fd5b60006121de826119c8565b91506121e9836119c8565b9250828201905080821115612201576122006121a4565b5b92915050565b6000612212826119c8565b91507fffffffffffffffffffffffffffffffffffffffffffffffffffffffffffffffff8203612244576122436121a4565b5b600182019050919050565b60006020820190506122646000830184611c4b565b92915050565b600081519050612279816119d2565b92915050565b60006020828403121561229557612294611878565b5b60006122a38482850161226a565b91505092915050565b60006122b7826119c8565b91506122c2836119c8565b92508282039050818111156122da576122d96121a4565b5b92915050565b60006122eb826119c8565b91506122f6836119c8565b9250828202612304816119c8565b9150828204841483151761231b5761231a6121a4565b5b5092915050565b7f52656e74657220686173206e6f207374616b6500000000000000000000000000600082015250565b6000612358601383611b9a565b915061236382612322565b602082019050919050565b600060208201905081810360008301526123878161234b565b9050919050565b7f4e487b7100000000000000000000000000000000000000000000000000000000600052601260045260246000fd5b60006123c8826119c8565b91506123d3836119c8565b9250826123e3576123e261238e565b5b828204905092915050565b7f52656e746572207374696c6c2068617320656e6f756768207374616b6520746f60008201527f20636f76657220636f7374730000000000000000000000000000000000000000602082015250565b600061244a602c83611b9a565b9150612455826123ee565b604082019050919050565b600060208201905081810360008301526124798161243d565b905091905056fea264697066735822122022b67969c8e05f72b692d103a3d0af13c1fa8998047f49b428808076adad6ee864736f6c63430008120033",
  "linkReferences": {},
  "deployedLinkReferences": {}
}